:020000040000FA
:060000000A128A110C280F
:10000800FE00030EF0000A08F1000A168A11B22E4B
:100018000A128A110F288313BA30FD001430FE002B
:10002800D730FF00A03084000A168A11C8240A12AB
:100038008A116830FD001430FE000030FF00653082
:1000480084000A168A11C8240A128A110A168A110B
:10005800FE230A128A11F9000A168A11FF230A12CE
:100068008A11FA00BA308400C5300A168A110A24A7
:100078000A128A11203084004E300A168A110A2486
:100088000A128A11FB0183010A128A114B280130D6
:1000980083160313CD00FF30CE00831203136508C7
:1000A80083160313C8008312031366088316031309
:1000B800C90083120313670883160313CA00CB0110
:1000C8000A168A11EB260A128A110A3083120313C0
:1000D800CE000030CF000A168A118C240A128A1129
:1000E800730883120313D1007208D0000A128A1110
:1000F800B6270A128A11831203134E0883160313B4
:10010800CC0063304C02031C8A288B288D2863306E
:10011800CC0001300A128A15A4230A128A11831608
:100128000313CF004D03031D9A289B2812293E3044
:100138004F06031DA028A128BC28C830F20064304F
:10014800F3009130F4000A168A116E250A128A11FA
:10015800C83083120313D400831603134C08831288
:100168000313D5000A128A15A0210A128A1112292E
:100178003D304F06031DC128C228EF2805304B0229
:100188000318C728C828CA280130CB07C830F2008E
:100198004B0883120313E2006207A03E8400831316
:1001A8000008F300840A00088403F4000A168A1180
:1001B8006E250A128A11C83083120313D4008316DD
:1001C80003134C0883120313D5000A128A15A021C1
:1001D8000A128A1112293B304F06031DF428F5280C
:1001E80012294B080319F928FA28FC280130CB02F8
:1001F800C830F2004B0883120313E2006207A03EE6
:10020800840083130008F300840A00088403F400C0
:100218000A168A116E250A128A11DF2837308316CA
:1002280003134F06031919291A2920292F304F06BD
:10023800031D1F29202956294D03031D242925297B
:1002480056290230CD00F130CE000A168A116924F1
:100258000A128A118930F6009030F7008030F800D1
:100268000A168A11E5250A128A116230F6009130C1
:10027800F700C330F8000A168A11E5250A128A1118
:10028800F2010F300A168A112D250A128A11A5309B
:1002980083120313E200E20B4F295229831203133E
:1002A80012151A2BB7304F06031D5B295C29D0297C
:1002B80003304D06031D61296229D029BF29043066
:1002C800CD00F430CE000A168A1169240A128A1168
:1002D800F2010C300A168A112D250A128A11A5304E
:1002E80083120313E200E20B77297A291A2B0530CF
:1002F800CD00F630CE000A168A1169240A128A1136
:10030800F2010C300A168A112D250A128A11732956
:100318000630CD00F630CE000A168A1169240A127A
:100328008A11F2010C300A168A112D250A128A1137
:1003380073290730CD00F530CE000A168A116924DA
:100348000A128A11F2010C300A168A112D250A1296
:100358008A1173290830CD00F130CE000A168A11AF
:1003680069240A128A11F2010C300A168A112D2505
:100378000A128A1173294508003A03196329013AB8
:1003880003197B29033A03198C29013A03199D297A
:10039800073A0319AE291A2BB7304F06031DD52982
:1003A800D629ED2904304D06031DDB29DC29ED296A
:1003B8000330CD00F330CE000A168A1169240A12E0
:1003C8008A11F2010C300A168A112D250A128A1197
:1003D8007329AF304F06031DF229F3291A2B033076
:1003E8004D060319F829F929FF2904304D06031D84
:1003F800FE29FF291A2B0130CD00FF30CE000A1646
:100408008A1169240A128A11F2010C300A168A111B
:100418002D250A128A11A53083120313E200E20B7C
:10042800132A162A8312031312111A2BC8308312A7
:100438000313D400831603134C0883120313D50047
:100448000A168A11AC270A128A11362B0130831634
:100458000313CD000A168A1169240A128A11F201BF
:100468000C300A168A112D250A128A11A53083121A
:100478000313E200E20B3E2A412A831203131211EE
:10048800362B033083160313CD000A168A1169240C
:100498000A128A11F2010C300A168A112D250A1245
:1004A8008A113A2A4E0883120313D30083160313C2
:1004B8004F080A128A1583260A128A11113A03195B
:1004C8002A2A333A0319452A362B4E088312031376
:1004D800D300831603134F080A128A152D220A1215
:1004E8008A1183160313C500362B4E088312031393
:1004F800D300831603134F080A128A1562250A12BD
:100508008A11362B4E0883120313CE008316031369
:100518004F080A168A1114260A128A11013A031D75
:10052800962A972A362B033083160313CD000A1612
:100538008A1169240A128A11F2010C300A168A11EA
:100548002D250A128A11A53083120313E200E20B4B
:10055800AB2AAE2A362B4E0883120313CE0083161D
:1005680003134F080A128A156A240A128A11013ADB
:10057800031DBF2AC02A362B033083160313CD0070
:100588000A168A1169240A128A11F2010C300A1615
:100598008A112D250A128A11A72A4E0883120313DD
:1005A800D300831603134F080A128A1149230A122B
:1005B8008A1183160313C60022304606031DE52A56
:1005C800E62A362B333083120313E400BB30E300F2
:1005D800DF30E200E20BEE2AE30BEE2AE40BEE2A10
:1005E800033083160313CD000A168A1169240A12F0
:1005F8008A11362B4E0883120313D3008316031374
:100608004F080A128A112F260A128A118316031319
:10061800C700223047060319122B132BE62A113084
:100628004706031D182B192B362BE62A83160313AE
:100638004D08013A03191A2A033A0319562A013AAE
:100648000319692A073A0319792A013A0319862AEC
:10065800033A0319AF2A013A0319D12A0F3A0319A9
:10066800FE2A362BFF3083160313CE002130831267
:100678000313E3007530E200E20B402BE30B402B41
:10068800452B69280A128A110C2883120313E100EA
:10069800F5305306031D512B522BDA2B02300A1664
:1006A8008A118F250A128A1183120313DE00013082
:1006B8000A168A118F250A128A1183120313DF0082
:1006C80000300A168A118F250A128A118312031321
:1006D800E0000F305E05D4000A30F2005E08D50055
:1006E80004300310D50CFF3E031D752B5508033944
:1006F8000A168A11B1240A128A11831203135407A5
:10070800AF000F305F05D4000A30F2005F08D50053
:1007180004300310D50CFF3E031D8D2B55080739F7
:100728000A168A11B1240A128A1183120313540774
:10073800AE000F306005D4000A30F2006008D50022
:1007480004300310D50CFF3E031DA52B55080739AF
:100758000A168A11B1240A128A1183120313540744
:10076800AD00AC01A301A4010130AB000A168A1147
:1007780069240A128A11F2010C300A168A112D25F1
:100788000A128A11A53083120313D400D40BCA2B82
:10079800CD2B5A30F6009030F7008030F8000A165A
:1007A8008A11E5250A128A1100302E2EB73061060B
:1007B800031DDF2BE02BB52C0A30F2000030F300CC
:1007C8002F08D400D5015408F4005508F5000A1282
:1007D8008A1527200A128A11720883120313D60079
:1007E8007308D7000A30F2000030F3002F08D80051
:1007F800D9015808F4005908F5000A128A15D520BD
:100808000A128A11720883120313DA0003300310E4
:10081800DA0DFF3E031D0B2C03105A0D5604DB00A6
:100828000A30F2000030F3002E08D400D501540835
:10083800F4005508F5000A128A1527200A128A11B1
:10084800720883120313D6007308D7000A30F20027
:100858000030F3002E08D800D9015808F4005908D0
:10086800F5000A128A15D5200A128A117208831215
:100878000313DA0003300310DA0DFF3E031D3F2C8B
:1008880003105A0D5604DC000A30F2000030F30061
:100898002D08D400D5015408F4005508F5000A12B3
:1008A8008A1527200A128A11720883120313D600A8
:1008B8007308D7000A30F2000030F3002D08D80082
:1008C800D9015808F4005908F5000A128A15D520EC
:1008D8000A128A11720883120313DA000330031014
:1008E800DA0DFF3E031D732C03105A0D5604DD006C
:1008F8005B08F30002300A168A11F1240A128A11E1
:10090800831203135C08F30001300A168A11F124DC
:100918000A128A11831203135D08F30000300A16C5
:100928008A11F1240A128A110A168A1169240A12F4
:100938008A11A630F6009030F7008030F8000A16C9
:100948008A11E5250A128A11CD30F6009030F70099
:10095800C030F8000A168A11E5250A128A112230D9
:100968002E2E37306106031DBA2CBB2C0A2D2C08FD
:10097800031DBF2CC02CD52C1830F2000030F3001A
:100988002F08013EF400003003180130F5000A1268
:100998008A1527200A128A11720883120313AF00DE
:1009A8001D2D2C03031DD92CDA2CEF2C3C30F20022
:1009B8000030F3002E08013EF40000300318013027
:1009C800F5000A128A1527200A128A117208831262
:1009D8000313AE001D2D02302C06031DF42CF52C3C
:1009E8001D2D3C30F2000030F3002D08013EF400CC
:1009F800003003180130F5000A128A1527200A1260
:100A08008A11720883120313AD001D2D2F30610661
:100A1800031D0F2D102D1D2D0130AC0703302C02A6
:100A2800031C172D182D192DAC01A301A4010130A9
:100A3800AB000130A3070318A40A0030A407003054
:100A480024020A3003192302031C2B2D2C2D362DCA
:100A5800A301A4012B080319322D342D0130352DA3
:100A68000030AB002C08031D3A2D3B2D4C2D2B08D4
:100A7800031D3F2D402D4C2D6130F6009130F700BD
:100A8800C030F8000A168A11E5250A128A11802D4D
:100A9800C030D2000A30F2000030F3002F08D40032
:100AA800D5015408F4005508F5000A128A15D52016
:100AB8000A128A117208303E0A168A119E240A12F6
:100AC8008A11C13083120313D2000A30F2000030B9
:100AD800F3002F08D400D5015408F4005508F50098
:100AE8000A128A1527200A128A117208303E0A163D
:100AF8008A119E240A128A11C23083120313D2006B
:100B08003A300A168A119E240A128A118312031394
:100B18002C03031D902D912DA22D2B08031D952D1F
:100B2800962DA22D6130F6009130F700C330F80001
:100B38000A168A11E5250A128A11D62DC330D20069
:100B48000A30F2000030F3002E08D400D501540812
:100B5800F4005508F5000A128A15D5200A128A11E0
:100B68007208303E0A168A119E240A128A11C4306D
:100B780083120313D2000A30F2000030F3002E086B
:100B8800D400D5015408F4005508F5000A128A1556
:100B980027200A128A117208303E0A168A119E24EA
:100BA8000A128A11C53083120313D2003A300A168A
:100BB8008A119E240A128A110230831203132C060A
:100BC800031DE72DE82DF92D2B08031DEC2DED2D28
:100BD800F92D6130F6009130F700C630F8000A169A
:100BE8008A11E5250A128A11D82BC630D2000A309C
:100BF800F2000030F3002D08D400D5015408F400A9
:100C08005508F5000A128A15D5200A128A117208A9
:100C1800303E0A168A119E240A128A11C73083129E
:100C28000313D2000A30F2000030F3002D08D4007C
:100C3800D5015408F4005508F5000A128A15272032
:100C48000A128A117208303E0A168A119E240A1264
:100C58008A11D82B080083120313DA00F1305306E7
:100C6800031D372E382E672EAA01A9010530B800BA
:100C78000A168A1169240A128A119830F6009030EF
:100C8800F7008030F8000A168A11E5250A128A1141
:100C98006230F6009130F700C330F8000A168A1166
:100CA800E5250A128A11F2010F300A168A112D253C
:100CB8000A128A11A53083120313D400D40B622EB2
:100CC800652E0030B52F3808031D6B2E6C2E7D2E37
:100CD8001211F2010C300A168A112D250A128A11F6
:100CE800A53083120313D400D40B782E7B2E113039
:100CF800B52F37305A060319822E832E952E2F30A2
:100D08005A060319882E892E952EB7305A060319CC
:100D18008E2E8F2E952EAF305A06031D942E952EAB
:100D2800D32E0430290203189A2E9B2ED32E373047
:100D38005A060319A02EA12EAC2EB7305A06031955
:100D4800A62EA72EAC2E3030D7000030D800B02EFB
:100D58003130D7000030D8005708D9002A08031DC1
:100D6800B62EB72EBE2E2908453E84005908831397
:100D78008000C42E2908C13E8400590883138000CE
:100D88002908C43ED2002A300A168A119E240A1263
:100D98008A11013083120313A9070530B800043003
:100DA8002906031DD82ED92E652E2A08031DDD2EEF
:100DB800DE2E012F0130AA00A9010A168A11692422
:100DC8000A128A11C030F6009030F7008030F8001F
:100DD8000A168A11E5250A128A116230F600913046
:100DE800F700C330F8000A168A11E5250A128A119D
:100DF800053083120313B800652E4530F200C13068
:100E0800F3000430F4000030F5000A168A11612757
:100E18000A128A1172087304031D132F142F5A2FF4
:100E280083120313450883160313B60083120313B2
:100E3800460883160313B700831203134708831663
:100E48000313B80083120313480883160313B90069
:100E58000A168A1169240A128A11F2010C300A163C
:100E68008A112D250A128A11A53083120313D40082
:100E7800D40B3C2F3F2F8030F6009030F7008030A5
:100E8800F8000A168A11E5250A128A115530F6006B
:100E98009130F700C030F8000A168A11E5250A12C9
:100EA8008A118312031312112230B52F0A168A11E0
:100EB80069240A128A11F2010C300A168A112D25AA
:100EC8000A128A11A53083120313D400D40B6A2F97
:100ED8006D2F3130F6009130F7008030F8000A1697
:100EE8008A11E5250A128A110B30F6009130F700B5
:100EF800C030F8000A168A11E5250A128A1127302F
:100F080083120313D6000D30D5002530D400D40B3E
:100F18008B2FD50B8B2FD60B8B2F922F831203136E
:100F2800AA01A9010A168A1169240A128A11B33082
:100F3800F6009030F7008030F8000A168A11E5258F
:100F48000A128A11F2010F300A168A112D250A1287
:100F58008A11A53083120313D400D40BB12FB42FF8
:100F6800FC2E0800F701F801831203134E084F0402
:100F78000319BF2FC02FF52F0130F600CC2F0130F9
:100F88000310CE0DCF0DFF3E031DC42F0130F60711
:100F9800CF1FCF2FD02FC32F01300310F70DF80D1F
:100FA800FF3E031DD12F4F085102031DDD2F4E08B0
:100FB8005002031CE02FE12FE82F4E08D0024F0803
:100FC800031CD103D102771401300310CF0CCE0CCF
:100FD800FF3E031DE92F0130F602031DF42FF52F04
:100FE800D02F7808CF007708CE00080083160313A7
:080FF80006083F3886000800DE
:1010020016287408FF00730884000A168A117921D1
:101012000A128A150A168A113A240A128A1501300E
:10102200F3070318F40A0030F40774088312031359
:10103200FF00730884000A168A1179210A128A15A0
:10104200003A031D2528262802280800F701F51F6B
:101052002B282C283328F409F509F40A0319F50A78
:101062000130F700F31F362837283C28F209F3092C
:10107200F20A0319F30A7208730403194128422879
:101082006F280130F6004E2801300310F20DF30DE7
:10109200FF3E031D46280130F607F31F5128522850
:1010A200452873087502031D582872087402031C30
:1010B2005B285C2862287208F4027308031CF5039B
:1010C200F50201300310F30CF20CFF3E031D6328FE
:1010D2000130F602031D6E286F2852287708031983
:1010E200732874287928F409F509F40A0319F50A12
:1010F2007508F3007408F2000800C330F700CD3021
:10110200F600F60B8228F70B8228F20133300A161A
:101112008A112D250A128A151B30F7009E30F6001F
:10112200F60B9128F70B91280000F20133300A16D2
:101132008A112D250A128A15A630F600F60B9F2871
:101142000000F20133300A168A112D250A128A157F
:10115200AA28AB280000F20138300A168A112D2580
:101162000A128A15A630F600F60BB5280000F20125
:1011720001300A168A112D250A128A150430F70049
:101182003D30F600F60BC328F70BC328C828F2013E
:101192000C300A168A112D250A128A15A630F6007D
:1011A200F60BD1280000080083120313CF01F31FAE
:1011B200DB28DC28E328F209F309F20A0319F30A0F
:1011C2000130CF00F51FE628E728EE28F409F509DB
:1011D200F40A0319F50A0130CF06D001D1017208D1
:1011E20073040319F528F6282B290130CE000229B1
:1011F20001300310F20DF30DFF3E031DFA280130FA
:10120200CE07F31F05290629F92801300310D00D56
:10121200D10DFF3E031D072973087502031D132913
:1012220072087402031C162917291E297208F40277
:101232007308031CF503F502501401300310F30C7C
:10124200F20CFF3E031D1F290130CE02031D2A2985
:101252002B2906294F0803192F2930293529D009AE
:10126200D109D00A0319D10A5108F3005008F2003B
:1012720008000030F6000030F5000030F4000030C5
:10128200F30083120313510850044F044E04031950
:101292004B294C2997290130F7005A290130F200D5
:1012A2000310CE0DCF0DD00DD10DF20B512901300F
:1012B200F707D11F5D295E294F290130F200031083
:1012C200F30DF40DF50DF60DF20B602951085502E0
:1012D200031D752950085402031D75294F08530236
:1012E200031D75294E085202031C78297929882981
:1012F2004E08D2024F08031C4F0FD3025008031CA2
:10130200500FD4025108031C510FD502731401303F
:101312000310D10CD00CCF0CCE0CFF3E031D89293B
:101322000130F702031D962997295E297608D1001C
:101332007508D0007408CF007308CE0008000A12A6
:101342008A15E5220A128A153A30F200BA30F30001
:101352000630F4000030F5000A168A117C260A12C3
:101362008A154030F200831203135408F30002304E
:10137200F4000030F5000A168A117C260A128A153A
:101382000A30F2000030F300831203135508D6002E
:10139200D7015608F4005708F5000A128A15D5201D
:1013A2000A128A157208303E83120313C2000A30F1
:1013B200F2000030F3005508D600D7015608F400B9
:1013C2005708F5000A128A1527200A128A15720890
:1013D200303E83120313C3000A30F2004D080A168E
:1013E2008A11B1240A128A1583120313D800D90173
:1013F20059083A3E840083130008F300590858073D
:101402000A168A110F250A128A1521308312031334
:10141200D7007530D600D60B0C2AD70B0C2A112A0E
:10142200013083120313D9070A305902031C1A2A06
:101432001B2AF9290130CD070A304D06031D222A45
:10144200232A242ACD010A3035020318292A2A2AFE
:101452002C2A0130B507080083120313D600F3309B
:101462005306031D352A362A382AB201B1012F301C
:101472005606031D3D2A3E2A562A0430320203181C
:10148200432A442A562A0A168A1169240A128A15FC
:10149200013083120313B207023031020318522AB9
:1014A200532A722A0130B107722A37305606031DB9
:1014B2005B2A5C2A722A32080319602A612A722A7C
:1014C2000A168A1169240A128A150130831203133B
:1014D200B20202303102031C6F2A702A722A0130D2
:1014E200B10231030319762A772A7C2A3208031DB6
:1014F2007B2A7C2AAF2A8030D2002A300A168A112F
:101502009E240A128A15831203133208D400540748
:10151200AC3E840083130008F600840A00088403AA
:10152200F7008130F8000A168A11E5250A128A1599
:10153200831203133208D4005407AE3E840083138F
:101542000008F600840A00088403F700C130F8009E
:101552000A168A11E5250A128A15E12AC030D2003C
:101562002A300A168A119E240A128A15831203133C
:101572003208D4005407AA3E840083130008F60000
:10158200840A00088403F7008130F8000A168A11E1
:10159200E5250A128A15831203133208D400540770
:1015A200AC3E840083130008F600840A000884031A
:1015B200F700C130F8000A168A11E5250A128A15C9
:1015C200831203133208080002300A168A118F258B
:1015D2000A128A1583120313A00001300A168A1117
:1015E2008F250A128A1583120313A10000300A16EE
:1015F2008A118F250A128A1583120313A20020086A
:10160200D30004300310D30CFF3E031D032B5308F9
:101612000339303E83160313BA00831203132008E2
:101622000F39303E83160313BB00C03083120313FD
:10163200D200831603133A080A168A119E240A124C
:101642008A15C13083120313D200831603133B0899
:101652000A168A119E240A128A15C23083120313B3
:10166200D2003A300A168A119E240A128A1583126F
:1016720003132108D30004300310D30CFF3E031DD3
:101682003D2B53080739303E83160313BC008312E7
:10169200031321080F39303E83160313BD00C330F4
:1016A20083120313D200831603133C080A168A110D
:1016B2009E240A128A15C43083120313D2008316A1
:1016C20003133D080A168A119E240A128A15C53090
:1016D20083120313D2003A300A168A119E240A1288
:1016E2008A15831203132208D30004300310D30C8B
:1016F200FF3E031D772B53080739303E8316031331
:10170200BE008312031322080F39303E83160313DF
:10171200BF00C001C63083120313D2008316031325
:101722003E080A168A119E240A128A15C7308312AD
:101732000313D200831603133F080A168A119E244C
:101742000A128A150800F200831203130608F30036
:101752003F30F3057208031DAF2BB02BB22B730879
:10176200692C73087906031DB72BB82BC02B7B0895
:10177200031DBC2BBD2BC32B0130FB07C32B7308EE
:10178200F900FB017B08031DC72BC82BCA2B3F3076
:10179200692C7908F4003E3074060319D12BD22B40
:1017A200E42B3D3074060319D72BD82BE42B3B30A6
:1017B20074060319DD2BDE2BE42B1F307406031D88
:1017C200E32BE42BE82B7408FA003F30692C373006
:1017D20074060319ED2BEE2BF42B2F307406031D28
:1017E200F32BF42B292C3F307A06031DF92BFA2B0D
:1017F200022C7408FA000130A7000030A800B901D9
:10180200C82B7A087406031D072C082CC82B270A3C
:10181200031D102C280A03190F2C102C162C013032
:10182200A7070318A80A0030A807003028022230B0
:1018320003192702031C1E2C1F2CC82B3908031D59
:10184200232C242CC82B0130B90074088038692C51
:101852003F307406031D2E2C2F2CC82B3E307A06E7
:101862000319342C352C472C3D307A0603193A2CB7
:101872003B2C472C3B307A060319402C412C472C39
:101882001F307A06031D462C472C4D2C7A08F40093
:101892003F30FA007408692C37307A060319522C4B
:1018A200532C592C2F307A06031D582C592CC82B37
:1018B2007A08F4003F30FA0039080319612C622CCF
:1018C200662CA701A801B901C82BA701A8017408B9
:1018D2000800F630831203134E06031D712C722C7E
:1018E200582D0A168A1169240A128A1583120313C3
:1018F2003508031D7D2C7E2C882C0030F30090309F
:10190200F4000A128A1501200A128A15382DD00114
:10191200322D0A30F20050080A168A11B1240A1236
:101922008A1583120313CF00D10151083A3E840075
:1019320051084F070A168A11BA250A128A1583130B
:101942008000013083120313D1070A305102031CB5
:10195200AB2CAC2C962CC4015008303E0A168A11CE
:101962003A240A128A1520300A168A113A240A12D7
:101972008A15831203133A080A168A113A240A12A4
:101982008A15831203133B080A168A113A240A1293
:101992008A153A300A168A113A240A128A158312D3
:1019A20003133C080A168A113A240A128A15831272
:1019B20003133D080A168A113A240A128A153A308C
:1019C2000A168A113A240A128A15831203133E0850
:1019D2000A168A113A240A128A15831203133F083F
:1019E2000A168A113A240A128A1520300A168A1116
:1019F2003A240A128A158312031340080A168A111E
:101A02003A240A128A158312031341080A168A110C
:101A12003A240A128A1520300A168A113A240A1226
:101A22008A158312031342080A168A113A240A12EB
:101A32008A158312031343080A168A113A240A12DA
:101A42008A150D300A168A113A240A128A150A30AA
:101A52000A168A113A240A128A15013083120313D4
:101A6200D00735085002031C372D382D8A2C0A1650
:101A72008A1169240A128A151F30F6009130F70084
:101A82008030F8000A168A11E5250A128A152830D4
:101A9200F6009130F700C030F8000A168A11E525E9
:101AA2000A128A15053083120313B800121538087A
:101AB200031D5C2D5D2D602D12110130612D003052
:101AC200080083120313D800F4305306031D6A2D55
:101AD2006B2D712DB0010A168A1169240A128A151A
:101AE200831203133508031D772D782D842D1630AC
:101AF200F6009030F7008030F8000A168A11E525CA
:101B02000A128A15822E37305806031D892D8A2D16
:101B1200A62D3508FF3ED400FF3003180030D50053
:101B22005508803A803C031D982D54083002031852
:101B32009B2D9C2DA02D013083120313B0070A1692
:101B42008A1169240A128A15B42D2F305806031DF2
:101B5200AB2DAC2DB42D30080319B02DB12DA02D15
:101B62000130B002A02D0A3083120313350203188C
:101B7200BB2DBC2DBF2D3008D700D12D0A30F2006D
:101B82000030F3004D083007F400F501F50D0A129C
:101B92008A1527200A128A15720883120313D700A6
:101BA2000A30F20057080A168A11B1240A128A155D
:101BB20083120313D600D90159083A3E840059080A
:101BC20056070A168A11BA250A128A15831380004B
:101BD200013083120313D9070A305902031CF22D74
:101BE200F32DDD2DC4013830F6009030F70080303F
:101BF200F8000A168A11E5250A128A15C0308312E6
:101C02000313D2003008303E0A168A119E240A12AB
:101C12008A15C23083120313D2003A080A168A11B7
:101C22009E240A128A15C33083120313D2003B0882
:101C32000A168A119E240A128A15C43083120313CB
:101C4200D2003A300A168A119E240A128A15C53029
:101C520083120313D2003C080A168A119E240A1228
:101C62008A15C63083120313D2003D080A168A1160
:101C72009E240A128A15C73083120313D2003A3007
:101C82000A168A119E240A128A15C8308312031377
:101C9200D2003E080A168A119E240A128A15C930F9
:101CA20083120313D2003F080A168A119E240A12D5
:101CB2008A15CB3083120313D20040080A168A1108
:101CC2009E240A128A15CC3083120313D2004108D3
:101CD2000A168A119E240A128A15CE308312031321
:101CE200D20042080A168A119E240A128A15CF309F
:101CF20083120313D20043080A168A119E240A1281
:101D02008A15080083120313D700F1305306031D0E
:101D12008B2E8C2E962E0330B300B401C901CA015A
:101D2200CB01CC010530B800D7013808031D9A2E2B
:101D32009B2E9D2E1130FF2F37305706031DA22EEA
:101D4200A32EBF2E043034020318A82EA92EBF2EB4
:101D52003408493E84003130831380003408C43E85
:101D6200D2002A300A168A119E240A128A150130DC
:101D720083120313B4070530B800DB2E2F30570649
:101D8200031DC42EC52EDB2E043034020318CA2EC6
:101D9200CB2EDB2E3408493E840030308313800082
:101DA2003408C43ED2002A300A168A119E240A122E
:101DB2008A15B82E04303406031DE02EE12EFF2FC3
:101DC2004930F200B630F3000430F4000030F50080
:101DD2000A168A1161270A128A1572087304031DF2
:101DE200F32EF42E172F0A168A1169240A128A1565
:101DF2004930F6009030F7008030F8000A168A1158
:101E0200E5250A128A15F2010C300A168A112D25CF
:101E12000A128A15A53083120313D400D40B0F2F94
:101E2200122F8312031312112230FF2F013083125B
:101E32000313B3023308031D1F2F202F992F0A16F5
:101E42008A1169240A128A15F2010C300A168A11C3
:101E52002D250A128A15A53083120313D400D40B40
:101E6200302F332F6A30F6009030F7008030F800C0
:101E72000A168A11E5250A128A153A30F6009130BF
:101E8200F700C030F8000A168A11E5250A128A15F1
:101E92003C3083120313B700822FC930D2000A30BC
:101EA200F2000030F3003708D400D5015408F400E2
:101EB2005508F5000A128A15D5200A128A157208E9
:101EC200303E0A168A119E240A128A15CA308312DB
:101ED2000313D2000A30F2000030F3003708D400B6
:101EE200D5015408F4005508F5000A128A15272076
:101EF2000A128A157208303E0A168A119E240A12A4
:101F02008A15831203133708031D882F892F4E2F3A
:101F12005D30F6009130F700CC30F8000A168A11D5
:101F2200E5250A128A15033083120313B300DC2F4E
:101F32000A168A1169240A128A15F2010C300A164D
:101F42008A112D250A128A15A53083120313D40093
:101F5200D40BA92FAC2F7A30F6009030F7008030E6
:101F6200F8000A168A11E5250A128A15E730F600EA
:101F72009030F700C030F8000A168A11E5250A12DF
:101F82008A15CE3083120313D2003308303E0A166C
:101F92008A119E240A128A15273083120313D6004F
:101FA2000D30D5002530D400D40BD52FD50BD52F2D
:101FB200D60BD52FDC2F0A168A1169240A128A152C
:101FC2008930F6009030F7008030F8000A168A1146
:101FD200E5250A128A15F2010F300A168A112D25FB
:101FE2000A128A15A53083120313D400D40BF72FDB
:101FF200FA2F83120313B4010530B80008004E34DF
:102002006F3420346C346F34673473342034743456
:102012006F34203464346F3477346E346C346F34FC
:10202200613464340D340A3400344E344F34203475
:102032004C344F34473420344134563441344934DB
:102042004C34413442344C344534003454344934F1
:102052004D3445342034203420342034203420348C
:10206200453456342034203453345034003423342D
:1020720020342034543449344D344534203420340F
:102082002034203445345634203453345034003410
:10209200503441345334533457344F34523444342B
:1020A2002034533455344334433445345334533455
:1020B2000034543449344D344534203428344834BF
:1020C20048343A344D344D343A3453345334293449
:1020D200003459344F345534203441345234453469
:1020E200203442344C344F3443344B34453444343A
:1020F2000034573452344F344E3447342034503441
:1021020041345334533457344F345234443400340A
:1021120045344E34543445345234203450344134EE
:102122005334533457344F345234443400344534E6
:102132004E3454344534523420344E3445345734BA
:1021420020345034573444340034543449344D34F8
:1021520045342034553450344434413454344534B5
:10216200443400344E3445345734203450344134EE
:102172005334533457344F34523444340034523489
:1021820045342D3445344E3454344534523420349D
:102192005034573444340034533455344334433484
:1021A200453453345334463455344C344C34593416
:1021B200003444346F3477346E346C346F346134A9
:1021C200643420346C346F346734003461347434D2
:1021D200743465346D347034743420346C34653442
:1021E2006634743400344C344F344734203443342E
:1021F2004C3445344134523445344434003443344D
:10220200683461346E346734653420347034773422
:102212006434003454345234593420344134473411
:10222200413449344E34003443346C3465346134BF
:10223200723420346C346F346734003444344F3495
:1022420057344E344C344F344134443400344334E4
:102252004F344D3450344C344534543445340034C6
:102262004D34493453344D34413454344334483476
:1022720000345734413449345434203446344F34D2
:102282005234003453346534743420347434693431
:102292006D3465340034563469346534773420340F
:1022A2006C346F34673400344334483441344E3430
:1022B2004734453444340034733465346334003471
:1022C2002034203400344334203400344734313451
:1022D2000034473432340034473433340034473422
:1022E2003434003447344E340034473452340034EA
:1022F200FF1B832983137F1883170008840A03199D
:10230200FF0A08007F087F398A000408840A03193B
:04231200FF0A82003C
:1027FC003F343F344F344E340034831603139F1749
:10280C00831203131F14080064008001840A040659
:10281C000319003404060B2C0A168A115C240A16C0
:10282C008A1183160313111408000A168A115C24EA
:10283C000A168A1183160313111508000A168A1139
:10284C001B240A168A110A168A1112240A168A11D6
:10285C000800F2000A168A115C240A168A11720802
:10286C008312031393000800F200720883120313FF
:10287C0099000C1E422C432C3F2C0C120800831682
:10288C0003138801091189100A128A157E200A1671
:10289C008A110800831203131211FA3083160313E2
:1028AC0092008C14831203138C10080083160313EC
:1028BC001419612C622C5C2C11081F39031D672C18
:1028CC00682C5C2C0800F20101300A168A112D25A7
:1028DC000A168A110430F7003D30F600F60B742C02
:1028EC00F70B742C792C080000300A168A118F25EE
:1028FC000A168A11F6007F30F6057608F3000030D0
:10290C000A168A11F1240A168A110800831203137D
:10291C001F151F19922C932C8F2C1E08F500831653
:10292C0003131E08F4007508F3007408F200080085
:10293C00F800F2018312031352080A168A112D258E
:10294C000A168A11F201F20A78080A168A112D2544
:10295C000A168A110800F400F301741CB62CB72C6B
:10296C00B92C7208F3070310F20D0310F40C740861
:10297C00031DC12CC22CB32C730808007E088A00DE
:10298C007F0882000A168A11C4240A168A11800054
:10299C00840A04087D0603190034FF0A0319FE0A91
:1029AC00C82C7334913476349134673491346A344E
:1029BC0091346D349134703491344C3491341534E9
:1029CC009134DA34903443349134003491343134CA
:1029DC00313431343134F4000A168A1112240A16B7
:1029EC008A11D0300A168A112F240A168A117408FB
:1029FC000A168A112F240A168A1173080A168A11CC
:102A0C002F240A168A110A168A111B240A168A11F7
:102A1C000800F4000A168A1112240A168A11A03032
:102A2C000A168A112F240A168A1174080A168A119A
:102A3C002F240A168A1173080A168A112F240A16D3
:102A4C008A110A168A111B240A168A110800F5002D
:102A5C007218312D352D831203130915382D83125D
:102A6C0003130911750888008914A630F300F30BC1
:102A7C003D2D00008312031389101B30F4009E308F
:102A8C00F300F30B472DF40B472D00000800F20068
:102A9C000A168A115C240A168A11831603139115DF
:102AAC000A168A115C240A168A118312031313085E
:102ABC00F3007203031D632D642D682D831603131D
:102ACC0091166B2D831603139112111673080800BF
:102ADC007208F7007408F6007308F500F30A03197E
:102AEC00F40A760883120313FF00750884000A1693
:102AFC008A1179210A168A11FF007708F70A8400D7
:102B0C007F08831380000008031D8D2D8E2D702DE2
:102B1C000800F4000A168A1112240A168A11D03001
:102B2C000A168A112F240A168A1174080A168A1199
:102B3C002F240A168A110A168A1124240A168A11BD
:102B4C00D1300A168A112F240A168A1100300A165F
:102B5C008A114D250A168A11F5000A168A111B24B2
:102B6C000A168A1175080800F4000A168A11122434
:102B7C000A168A11A0300A168A112F240A168A11F5
:102B8C0074080A168A112F240A168A110A168A1139
:102B9C0024240A168A11A1300A168A112F240A1627
:102BAC008A1100300A168A114D250A168A11F50071
:102BBC000A168A111B240A168A1175080800F201DC
:102BCC0078080A168A112D250A168A11032EF2018D
:102BDC00F20A7708FF00760884000A168A11792118
:102BEC000A168A110A168A112D250A168A11013025
:102BFC00F6070318F70A0030F70777088312031358
:102C0C00FF00760884000A168A1179210A168A11A7
:102C1C00003A031D122E132EED2D0800F6308312F0
:102C2C0003134E06031D1B2E1C2E3E2ECD01B5018B
:102C3C000A168A1169240A168A11F430F6009030AB
:102C4C00F7008030F8000A168A11E5250A168A1159
:102C5C00CD30F6009030F700C030F8000A168A111B
:102C6C00E5250A168A11053083120313B8001215D4
:102C7C003808031D422E432E462E12110130472ECA
:102C8C00003008008312031394155608DA00570815
:102C9C00DB005808DC005908DD0002300310DA0DA7
:102CAC00DB0DDC0DDD0DFF3E031D542E5D08D10048
:102CBC005C08D0005B08CF005A08CE000130D5006C
:102CCC003130D4002D30D3000030D2000A128A15D6
:102CDC003A210A168A11831203134E08FF3E8316FB
:102CEC000313930083120313941608007208F60062
:102CFC00962E0130F4020030031CF503F502730824
:102D0C00F30A840083130008FF007608F60A840097
:102D1C007F0880000008031D942E952E962EA32E5E
:102D2C0074087504031D9B2E9C2E7F2EA32E7608F3
:102D3C008400831380010130F6070130F402003067
:102D4C00031CF503F502740A031DB02E750A031D4E
:102D5C00B02EB12E9D2E0800831203138C1CB72E9F
:102D6C00B82ED82E0130A5070318A60A0030A607E6
:102D7C00203025064E3003192606031DC62EC72EFD
:102D8C00D72EA501A60138080319CD2ECE2ED02E94
:102D9C000130B80237080319D42ED52ED72E0130A6
:102DAC00B7028C108C1EDB2EDC2EE42E981CDF2E32
:102DBC00E02EE12E98101A08B6008C1271088A00C9
:102DCC00700E8300FE0E7E0E09000A128A11FA277D
:102DDC000A168A110A168A1103240A168A110A166F
:102DEC008A1145240A168A11003083120313D90064
:102DFC000130D8008630D700A030D6000A168A11D0
:102E0C0048260A168A110A168A117A240A168A1179
:102E1C000A168A1150240A168A11003083120313E1
:102E2C00D9000030D8002530D7008030D6000A16E3
:102E3C008A1125270A168A110B178B17080083167F
:102E4C000313071787178312031398171816831683
:102E5C0003139816831203135608DA005708DB0085
:102E6C005808DC005908DD0004300310DA0DDB0DC6
:102E7C00DC0DDD0DFF3E031D3B2F5D08D1005C0812
:102E8C00D0005B08CF005A08CE000130D50031309D
:102E9C00D4002D30D3000030D2000A128A153A210A
:102EAC000A168A11831203134E08FF3E831603136E
:102EBC0099008C1608000130F4020030031CF50355
:102ECC00F502740A031D6E2F750A031D6E2F6F2FEA
:102EDC007C2FF201F301AB2F0130F2070130F30725
:102EEC000130F4020030031CF503F5027208840073
:102EFC00831300080319832F842F9D2F73088400DC
:102F0C00000803198A2F8B2F9D2F74087504031941
:102F1C00902F912F9D2F730884000008F6007208E3
:102F2C0084000008760603199C2F9D2F722F7308BE
:102F3C0084000008F600720884000008F700760888
:102F4C007702F200F301031CF30308002730F600AC
:102F5C009030F7008030F8000A168A11E5250A1621
:102F6C008A110A128A15E5220A168A118312031392
:102F7C005408F6000030F700CA30F8000A168A111F
:102F8C00E5250A168A11CE3083120313D2000A30BB
:102F9C00F2000030F3005508D600D7015608F400B3
:102FAC005708F5000A128A15D5200A168A117208DC
:102FBC00303E0A168A119E240A168A11CF308312CB
:102FCC000313D2000A30F2000030F3005508D6008B
:102FDC00D7015608F4005708F5000A128A15272065
:102FEC000A168A117208303E0A168A119E240A1695
:042FFC008A1108002E
:02400E00FB3F76
:00000001FF
